:020000040800F2
:10000000E00400200101000859210008391C000803
:10001000C1200008BD0300085D26000800000000A4
:1000200000000000000000000000000013010008B4
:10003000BF03000800000000170100087B21000832
:100040001B0100081B0100081B0100081B01000820
:100050001B0100081B0100081B010008C103000868
:10006000E90300081B0100081B0100081B01000830
:100070001B0100081B0100081B0100081B010008F0
:100080001B0100081B0100081B0100081B010008E0
:100090001B0100081B0100081B0100081B010008D0
:1000A0001B0100081B0100081B0100081B010008C0
:1000B0001B0100081B0100081B0100081B010008B0
:1000C0001B0100081B0100081B0100081B010008A0
:1000D0001B0100083D2600081B0100081B01000849
:1000E0001B0100081B0100081B010008DFF80CD0F1
:1000F00000F0FCF8004800477D260008E0040020DE
:100100000648804706480047FEE7FEE7FEE7FEE7B1
:10011000FEE7FEE7FEE7FEE7FEE7FEE7D92100087F
:10012000ED000008202A04DB203A21FA02F0002129
:10013000704721FA02F3D040C2F1200291400843F7
:100140001946704770B521F0004303430CD0C1F34A
:100150000A550024D5EB040564EB0403D617AD1A49
:10016000B34102DB0020014670BD201841EB025173
:1001700070BD0EB540F2334102910021CDE900116E
:100180000A460B4600F064F803B000BD01F00043DE
:1001900030B421F0004150EA010206D00A0DA2F568
:1001A0006072C1F31301002A02DC30BC00207047EA
:1001B000440F44EAC104C100E01830BC00EBC25057
:1001C000AFF300800029A8BF7047401C490008BF5A
:1001D00020F00100704710B4B0FA80FC00FA0CF077
:1001E00050EA010404BF10BC704749B1CCF12004AF
:1001F00021FA04F411FA0CF118BF0121214308433C
:10020000A3EB0C01CB1D4FEA00614FEA102042BF67
:10021000002010BC704700EBC35010440029A4BF5D
:1002200010BC7047401C490008BF20F0010010BC02
:10023000704710B5141E73F1000408DA401C41F138
:10024000000192185B411A4301D120F0010010BD5A
:100250002DE9F04D92469B4611B1B1FA81F202E0D0
:10026000B0FA80F22032904600F052F804460F4671
:1002700040EA0A0041EA0B0153465A46084313D0AC
:10028000114653EA010019D0C8F140025046FFF769
:1002900049FF05460E4650465946424600F038F89A
:1002A000084305D0012004E020463946BDE8F08D22
:1002B0000020054346EAE0762C4337430A9863055D
:1002C000E40AA0EB08000022FD0A44EA47540A3081
:1002D00002D500200146E9E7010510196941DDE971
:1002E000084500196941BDE8F04DA2E7064C074DED
:1002F00006E0E06840F0010394E8070098471034F6
:10030000AC42F6D3FFF7F6FE48280008682800083C
:10031000202A04DB203A00FA02F1002070479140C5
:10032000C2F1200320FA03F3194390407047000004
:1003300010B5074C00224FF48051204600F062F9BE
:1003400020460122BDE81040510300F05BB90000D7
:10035000000C014010B5064C01221103204600F0AC
:1003600051F9002261142046BDE8104000F04AB95E
:10037000000C014010B5074C00224FF4804120468C
:1003800000F040F920460122BDE81040D10300F002
:1003900039B90000000C014010B5074C012291034F
:1003A000204600F02FF92046BDE8104000224FF40F
:1003B000004100F027B90000000C0140FEE7FEE715
:1003C00010B5022000F030F8064C0122110320463F
:1003D00000F018F9002261142046BDE8104000F03A
:1003E00011B90000000C014010B5042000F01CF809
:1003F000064C00224FF48051204600F003F92046BD
:100400000122BDE81040510300F0FCB8000C01408F
:1004100031B500F0FDF8044600F0FAF80099001B31
:100420008842F9D338BD7047044910B50A680242C2
:1004300002D00860FFF7F7FF10BD00001404014070
:100440002DE9F84FDFF890A100220AF1040B1446C1
:1004500001274FF00F090BF1040E00BF0B6807FADC
:1004600004F52B40AB4274D1DFF870C14E68A6EBA7
:100470000C0866452BD00DDC032E34D005DC36B3DA
:10048000012E19D0022E2FD11BE0112E16D0122EC4
:100490002AD119E0B8F5881F19D006DCB8F5803FDD
:1004A00015D0B8F5801F1FD111E0B8F5001F0ED090
:1004B000B8F5041F18D10AE0CA6815E0CA68121D11
:1004C00012E0CA6808320FE0CA680C320CE08A6891
:1004D0002AB1012A4FF0080203D0456104E004224A
:1004E00002E0056100E00022FF2B01D8064601E092
:1004F00000F104064FEA840501D9A5F12005D6F8DC
:1005000000C009FA05F82CEA080C02FA05F54CEAD5
:10051000050CC6F800C04D68ED0057D5304DAE69EA
:1005200046F00106AE61AD6924F0030605F0010551
:1005300000952C4D06EB050CDCF80850A6074FEA99
:10054000167809FA08F6B543274EB04202D10026C4
:1005500010E03BE0254EB04201D101260AE0244ED6
:10056000B04201D1022605E0224EB04201D103265D
:1005700000E0042606FA08F62E43CCF808604D6821
:10058000DAF80060ED03554601D51E4300E09E43B6
:100590002E604D68DBF80060AD035D4601D51E435B
:1005A00000E09E432E604D68DEF80060ED02754667
:1005B00001D51E4300E09E432E604D68AD020E4DF6
:1005C0002E6801D51E4300E09E432E60641C102C53
:1005D000FFF444AFBDE8F88F0004014000001110A3
:1005E000001002400000014000080140000C0140E2
:1005F00000100140001401400C040140C2684A4050
:10060000C26070470AB1016170470904FBE700004E
:1006100001480068704700000000002070B5040029
:1006200004D094F83500002510B106E0012070BD1B
:1006300084F83450204600F081FA242084F83500F4
:100640002068016821F00101016000F097FC01467B
:1006500028482268B1FBF0F05060274A6368934253
:1006600006D94FF4967358434FF47A73B0FBF3F006
:100670002368401C18626068904208D84000B1FBB3
:10068000F0F0C0F30B01042916D2042014E0A26894
:1006900052B100EBC00202EB0010B1FBF0F040F4ED
:1006A0004040010507D007E000EB4000B1FBF0F04F
:1006B00040F40040F5E701202168C861D4E9070152
:1006C000084321680860D4E9031008432168886062
:1006D000D4E9050108432168C8602068016841F039
:1006E00001010160A563202084F8350084F83650AC
:1006F000002070BD40420F00A08601002DE9FF4F91
:10070000044690F8350081B099468B460125202893
:1007100073D142F2107301224849204601F03AFB9E
:1007200000286AD194F83400012866D0012084F8AA
:1007300034002068016821F400610160242084F8FD
:1007400035000026A66320272068016841F48071E7
:1007500001604B4600224FF00111204601F01AFBC8
:1007600000285CD121680BF0FE000861FFF750FF04
:100770002168804648694969C0F3400094F83520F3
:10078000C1F380214FF0A00A14E000BFB9F1000FBF
:1007900005D0FFF73DFFA0EB0801494501D984F8DA
:1007A00035A0216848694969C0F3400094F83520B4
:1007B000C1F38021084301D1A02AE7D184F8357024
:1007C00020684169C943890718D4016841F4007160
:1007D0000160206841698069009042F21073012233
:1007E0001649204601F0D6FAC8B984F8357084F865
:1007F0003460002005B0BDE8F08F1DE0016841F4D1
:10080000007101602068416921F48061416142F218
:10081000107301220949204601F0BCFA08B10320F7
:10082000E8E7284603996D1C88428DD384F835701B
:1008300084F834600120DDE70220DBE702001000CD
:100840002DE9F843044690F83500DDF820901E4667
:1008500015468846202878D1002D5ED0002E5CD029
:1008600042F2107301226849204601F093FA0028F1
:10087000F1D194F83400012867D0012084F83400C5
:100880002068016821F400610160222084F83500AD
:10089000102084F836000027A7634A4641462046C8
:1008A00001F0E0F928B1A06B84F83470042834D04A
:1008B00072E0012E1AD02068DFF85081022E016804
:1008C0002ED041F480610160206841698069009008
:1008D000032E74D8012E18D0022E2ED04B460022A3
:1008E0004146204601F056FA80BB42E0206801688C
:1008F00021F48061016072B62068416981690091CC
:10090000016841F40071016062B64946204601F079
:10091000CAFAE0B1A06B20283ED00120BDE8F883E0
:1009200041F40061016072B62068416981690091FB
:10093000016821F48061016062B64B4600224146A5
:10094000204601F027FA08B905E05AE024E02068C3
:10095000006928704CE072B62068016841F40071AB
:10096000016020680069287062B6206800696870BC
:100970003EE02068016821F48061016072B6206861
:10098000006905F8010B761EB6B24B4600224146BF
:10099000204601F0FFF908B10320BFE72068016895
:1009A00041F4007101602068006905F8010B62B62E
:1009B0002068006905F8010BB61E15E0FFE74946FF
:1009C000204601F070FA0028A4D12068006905F8DB
:1009D000010B2168761EB6B24869C043400704D4B3
:1009E000086905F8010B761EB6B2002E7FF470AFD1
:1009F000202084F8350084F8367084F834700020A4
:100A00008CE702208AE700000200100004000100C9
:100A10002DE9F843044690F83500DDF820801D46A6
:100A20001746894620287BD1002F7AD0002D7ED012
:100A300042F2107301224049204601F0ABF9002830
:100A400077D194F83400012873D0012084F8340061
:100A50002068016821F400610160212084F83500DC
:100A6000102084F836000026A663424649462046F8
:100A700001F056F928B1A06B84F83460042856D0F0
:100A80000BE020684169806900904146204601F0F2
:100A90003DFA28B1A06B042844D00320BDE8F883B8
:100AA000216817F8010B086120686D1EADB241691D
:100AB000C943490705D435B117F8011B01616D1E03
:100AC000ADB2002DE1D14546FFF7A2FD80462027BB
:100AD00016E0204601F0B1F80028DBD1681C0FD0E9
:100AE0002DB1FFF795FDA0EB0800A84208D9A06B37
:100AF00040F02001A16384F8357084F83460C9E7C0
:100B000020684069C0434007E3D42068016841F48D
:100B10000071016084F8357084F834600020BDE70E
:100B200007E004E02068016841F4007101600120E1
:100B3000B4E70220B2E700000200100000B5006830
:100B40000C4985B0884212D1C0200090122001903B
:100B50000320039069460848FFF772FC0748C16903
:100B600041F40011C161C06900F40010049005B0A7
:100B700000BD000000540040000C01400010024085
:100B800002480168491C0160704700000000002015
:100B9000074810B5016841F010010160032000F022
:100BA0007DF8002000F006F800F016F8002010BDD7
:100BB0000020024010B5044600F0C6F94FF47A71E7
:100BC000B0FBF1F000F070FD00222146501E00F055
:100BD00045F8002010BD0000184808B5816941F0B3
:100BE00001018161806900F001000090032000F0A4
:100BF00055F8002211466FF00B0000F02FF800228C
:100C000011466FF00A0000F029F8002211466FF03B
:100C1000090000F023F800221146101F00F01EF812
:100C200000221146501E00F019F80548416821F0D5
:100C3000E06141F00071416008BD00000010024019
:100C40000000014000F01F02012191404009800096
:100C500000F1E020C0F8001170470000F0B40E4B26
:100C60001B680C46C3F30223C3F10705042D00D90A
:100C70000425191D072901D2002300E0DB1E0126EF
:100C800006FA05F1491E214099409E40761E164005
:100C90003143F0BC01F061BA0CED00E0064900F010
:100CA000070208684FF6FF03184040EA0220034A93
:100CB00010430860704700000CED00E00000FA05EA
:100CC0002DE9F047DFF8789205460E46D9F8000086
:100CD000022300F00707012041044206994C41F22B
:100CE0008838B74271D2D9F800C02CF0070C4CEA12
:100CF000060CC9F800C0D9F8007007F00707B74222
:100D00006FD12E78B60705D56668AF6826F0F00675
:100D10003E4366602E78F60756D06E68012E0BD0E3
:100D2000022E1ED093FAA3F1B1FA81F141F0200115
:100D3000490924D0216823E091FAA1F2B2FA82F2A3
:100D400042F02002520901D0226800E0626A91FA62
:100D5000A1F1B1FA81F101F01F018840024240D0B7
:100D600017E092FAA2F1B1FA81F141F020014909AC
:100D700001D0216800E0616A92FAA2F202E0616AA1
:100D800093FAA3F2B2FA82F202F01F0290400142FB
:100D900027D0606820F0030030436060FFF738FC24
:100DA00006466868012809D00228474613D01EE08D
:100DB000FFF72EFC801BB84201D992E047466068DD
:100DC000C0F381000128F3D1A1E015E0FFF720FC7A
:100DD000801BB84273D86068C0F381000228F5D147
:100DE00095E092E0FFF714FC801BB84279D8606868
:100DF00010F00C0FF6D18AE02F78BF0707D567688F
:100E0000D5F808C027F0F00747EA0C0767602F788D
:100E1000FF076DD06F68012F0BD0022F1ED093FA01
:100E2000A3F1B1FA81F141F02001490924D02168F0
:100E300023E091FAA1F2B2FA82F242F020025209C2
:100E400001D0226800E0626A91FAA1F1B1FA81F161
:100E500001F01F018840024257D017E092FAA2F138
:100E6000B1FA81F141F02001490901D0216800E087
:100E7000616A92FAA2F202E0616A93FAA3F2B2FA0C
:100E800082F202F01F02904001423ED0606820F0E2
:100E9000030038436060FFF7BBFB07466868012822
:100EA00007D0022811D01FE0FFF7B2FBC11B41455C
:100EB00017D86068C0F381000128F5D118E010E070
:100EC000FFF7A6FBC11B41450BD86068C0F381004A
:100ED0000228F5D10CE000BFFFF79AFBC11B41458A
:100EE00002D90320BDE8F087606810F00C0FF3D141
:100EF000D9F8001021F007013143C9F80010D9F8E2
:100F0000000000F00700B04201D00120EAE7287895
:100F1000400705D56068E96820F4E0600843606038
:100F20002878000706D56068296920F4605040EAF7
:100F3000C10060600020FFF73DFE0020D2E7000006
:100F4000002002400010024000B500F043F80849BC
:100F50004968F02292FAA2F201F0F001B2FA82F2AC
:100F6000D140044A515CC8400349086000BD0000FC
:100F700000100240382800080400002000B5FFF7E8
:100F8000E3FF074949684FF4E06292FAA2F201F4E4
:100F9000E061B2FA82F2D140024A515CC84000BD21
:100FA000001002403828000800B5FFF7CDFF0749C0
:100FB00049684FF4605292FAA2F201F46051B2FA19
:100FC00082F2D140024A515CC84000BD001002408C
:100FD0003828000810B519A385B00FCB8DE80F0095
:100FE0001AA01B4B006804905A681A4802F00C01C2
:100FF00004291DD008291BD14FF4701494FAA4F4CD
:1010000002F47011B4FA84F4E140D2031DF8011027
:1010100010D55A684FF4003393FAA3F302F4003268
:10102000B3FA83F3DA4004AB9A5CB0FBF2F04843C6
:1010300005B010BD08484843FAE700000203040564
:10104000060708090A0B0C0D0E0F10100102000014
:101050000010024000127A0000093D002DE9F84F0F
:1010600005460078FA4EC0074FF0010425D070689D
:101070006704C0F38100012807D07068C0F38100C5
:1010800002281BD17068C00318D597FAA7F0B0FAF0
:1010900080F040F02000400901D0306800E0706A24
:1010A00097FAA7F1B1FA81F101F01F0104FA01F1F9
:1010B000084202D06868002876D081E0306820F4C9
:1010C00080303060306820F480203060FFF7A0FA74
:1010D000804605E0FFF79CFAA0EB080064287CD866
:1010E00097FAA7F0B0FA80F040F02000400901D054
:1010F000306800E0706A97FAA7F1B1FA81F101F067
:101100001F0104FA01F10842E4D16868B0F5803F9C
:101110000BD010B1B0F5A02F11D0306820F4803082
:101120003060306820F4802002E0306840F4803085
:101130003060686820B3FFF76BFA80460AE03068D9
:1011400040F480203060F0E7FFF762FAA0EB08007F
:101150006428C4D897FAA7F0B0FA80F040F02000D5
:10116000400901D0306800E0706A97FAA7F1B1FA3F
:1011700081F101F01F0104FA01F10842E4D01FE0FF
:10118000FFF746FA804605E0FFF742FAA0EB0800B9
:101190006428A4D897FAA7F0B0FA80F040F02000B5
:1011A000400902D0306801E0B7E0706A97FAA7F111
:1011B000B1FA81F101F01F0104FA01F10842E3D113
:1011C0002878DFF8908280074FF000094FF002077F
:1011D0005AD5706810F00C0F00E07AE14FF0F80B70
:1011E00007D07068C0F3810002281BD17068C0036B
:1011F00018D497FAA7F0B0FA80F040F02000400928
:1012000001D0306800E0706A97FAA7F1B1FA81F175
:1012100001F01F0104FA01F108422AD028690128CF
:101220007BD126E0286980B394FAA4F0B0FA80F06C
:1012300048F82040FFF7ECF9824605E0FFF7E8F9AF
:10124000A0EB0A00022884D897FAA7F0B0FA80F041
:1012500040F02000400901D0306800E0706A97FA41
:10126000A7F1B1FA81F101F01F0104FA01F108427E
:10127000E4D030689BFAABF26969B2FA82F220F0EE
:10128000F80091400843306025E0FFE794FAA4F1AC
:10129000B1FA81F148F82190FFF7BAF9824605E0EA
:1012A000FFF7B6F9A0EB0A000228CCD897FAA7F00E
:1012B000B0FA80F040F02000400901D0306800E032
:1012C000706A97FAA7F1B1FA81F101F01F0104FAEF
:1012D00001F10842E4D1287800076ED5A869B8B3B7
:1012E00094FAA4F0B0FA80F008EB8000C0F88044D3
:1012F000FFF78EF9824605E0FFF78AF9A0EB0A00B6
:101300000228A0D897FAA7F0B0FA80F040F0600069
:10131000B4EB501F02D130680CE096E197FAA7F0C9
:10132000B0FA80F040F06000B7EB501F01D1306A96
:1013300000E0706A97FAA7F1B1FA81F101F01F019C
:1013400004FA01F21042D7D00120FFF761F834E02F
:10135000FFE794FAA4F1B1FA81F108EB8101C1F839
:101360008094FFF755F9824606E000BFFFF750F979
:10137000A0EB0A00022898D897FAA7F0B0FA80F0FC
:1013800040F06000B4EB501F01D130680BE097FAD9
:10139000A7F0B0FA80F040F06000B7EB501F01D129
:1013A000306A00E0706A97FAA7F1B1FA81F101F0B2
:1013B0001F0104FA01F21042D8D12878400770D5F5
:1013C000F06940F08050F061F069DFF88CB000F017
:1013D00080500090DBF8001041F48071CBF80010D1
:1013E000FFF716F9824605E0FFF712F9A0EB0A00B5
:1013F00064286ED8DBF80000C005F5D5306A20F00F
:1014000001003062306A20F004003062FFF700F91A
:10141000834641F2883A05E0FFF7FAF8A0EB0B01AA
:10142000514556D897FAA7F0B0FA80F040F0400046
:10143000B4EB501F01D1306811E097FAA7F0B0FA71
:1014400080F040F04000B7EB501F07D1306A06E053
:10145000001002400000424200700040706A97FA9B
:10146000A7F1B1FA81F101F01F0104FA01F108427C
:10147000D2D1E86801280AD008B1052812D0306A14
:1014800020F001003062306A20F0040002E0306A8F
:1014900040F001003062E86898B3FFF7B9F883467E
:1014A0000CE05AE0306A40F004003062EFE700BF21
:1014B000FFF7AEF8A0EB0B0151450AD897FAA7F059
:1014C000B0FA80F040F04000B4EB501F02D1306819
:1014D0000CE09DE097FAA7F0B0FA80F040F04000F1
:1014E000B7EB501F01D1306A00E0706A97FAA7F19C
:1014F000B1FA81F101F01F0204FA02F10842D7D0DB
:101500002BE0FFE7FFF784F8834605E0FFF780F85C
:10151000A0EB0B0151457BD897FAA7F0B0FA80F009
:1015200040F04000B4EB501F01D130680BE097FA57
:10153000A7F0B0FA80F040F04000B7EB501F01D1A7
:10154000306A00E0706A97FAA7F1B1FA81F101F010
:101550001F0204FA02F10842D8D1E86980B3716829
:10156000C1F38101022970D04FF080714F00022831
:10157000484609D091FAA1F1B1FA81F148F8210069
:10158000FFF746F8054669E0894691FAA1F1B1FAFC
:1015900081F1C24648F82100FFF73AF8804605E09D
:1015A000FFF736F8A0EB0800022854D897FAA7F006
:1015B000B0FA80F040F02000400902D0306801E02D
:1015C00061E0706A97FAA7F1B1FA81F101F01F01A9
:1015D00004FA01F10842E3D1286AB0F5803F05D151
:1015E0007068A96820F4003008437060D5E90801EC
:1015F0000843716821F474110843706099FAA9F0E6
:10160000B0FA80F04AF82040FFF702F8054606E0FD
:1016100021E000BFFEF7FCFF401B02281BD897FA11
:10162000A7F0B0FA80F040F02000400901D0306807
:1016300000E0706A97FAA7F1B1FA81F101F01F0199
:1016400004FA01F10842E5D01DE01EE0FEF7E0FFDC
:10165000401B022802D90320BDE8F88F97FAA7F0B3
:10166000B0FA80F040F02000400901D0306800E07E
:10167000706A97FAA7F1B1FA81F101F01F0104FA3B
:1016800001F10842E2D10020E6E70120E4E74FF053
:10169000E0210428086903D020F0040008617047A5
:1016A00040F00400FAE7704710B5401EB0F1807FAB
:1016B00001D3012010BD4FF0E02460610F216017BD
:1016C00000F04BFD0020A06107202061002010BD2C
:1016D00010B5FFF7E8FF10BD30B590F83820012AAB
:1016E00019D0012200F8382F02234370D1E90034C9
:1016F0002343D1E902452C4323430C6923434C691E
:10170000896923430B4350F8381C4B644270002115
:101710000170084630BD022030BD30B590F8382049
:10172000012A20D0012280F83820022380F83930A5
:1017300003685C6824F070045C6003685C680D6892
:101740002C435C6003689C6824F080049C60036800
:101750009C6849680C439C6080F83920002180F81F
:101760003810084630BD022030BD10B5040003D04B
:1017700094F8390010B107E0012010BD002084F872
:101780003800204600F00CF8022084F83900211DB2
:10179000206800F045FD012084F83900002010BDCC
:1017A00008B500680649884208D10648816941F4B5
:1017B00000618161806900F40060009008BD000054
:1017C000002C01400010024070B5044690F838002B
:1017D000012817D0012584F83850022084F83900F8
:1017E0002068826822F0770222F47F4282600868D3
:1017F000502837D00DDC202859D005DC88B31028BC
:1018000041D151E0022070BD302853D040283AD158
:101810003FE060282ED070280BD0B0F5805F03D059
:10182000B0F5005F2FD110E02068816821F007013A
:1018300015E0CB68D1E90121206800F02EFD216878
:10184000886840F0770088601DE0CB68D1E901210D
:10185000206800F022FD2068816841F480418160A9
:1018600011E01EE0CA684968206800F0CBFD5021F5
:10187000206806E0CA684968206800F0D4FD60214D
:10188000206800F014FD84F83950002084F83800F6
:1018900070BDCA684968206800F0B4FD4021206826
:1018A000EFE700212068ECE710212068E9E720211C
:1018B0002068E6E730212068E3E700001FB50068F4
:1018C0000649884209D14FF410600090022001902F
:1018D000039069460248FEF7B3FD1FBD002C01408E
:1018E0000008014070B5044690F838000D46012804
:1018F0000DD0012684F83860022084F8390042B106
:10190000042A18D0082A2AD00C2A4DD139E0022006
:1019100070BD206800F0D4FC2068816941F00801A6
:1019200081612068816921F00401816120688169F9
:101930002A69114311E0206800F0EAFC20688169FF
:1019400041F4006181612068816921F480618161D5
:10195000206881692A6941EA0221816124E02068C6
:1019600000F002FD2068C16941F00801C1612068F2
:10197000C16921F00401C1612068C1692A6911436C
:1019800011E0206800F01CFD2068C16941F400618D
:10199000C1612068C16921F48061C1612068C169A9
:1019A0002A6941EA0221C16184F83960002084F883
:1019B000380070BD10B5040003D094F8390010B1A0
:1019C00007E0012010BD002084F83800204600F018
:1019D0000CF8022084F83900211D206800F020FC5A
:1019E000012084F83900002010BD704710B504466E
:1019F0000068012200F046FC07492068884203D1B4
:101A0000416C41F4004141642068016841F00101EA
:101A10000160002010BD0000002C01407047000054
:101A200038B5044600680168C26811F0010F02F47D
:101A3000807204D01AB1E16B41F00101E1630168E9
:101A4000C1F34002416901F0010122B119B1E26B19
:101A500042F00402E2630268C2F3800222B119B1CB
:101A6000E26B42F00202E2630268C2F3C00222B1FA
:101A700019B1E16B41F00801E1630168C068C1F38D
:101A8000401100F0200019B110B1204600F0DEFC3A
:101A900020680168C068C1F3C01100F0800019B16E
:101AA00010B1204600F096FD21680868CA68C0F3AE
:101AB000801002F04002012570B16AB1CA68204668
:101AC00022F04002CA6094F83910322911D080F80F
:101AD000395000BF00F0AFF8E06B002808D0206854
:101AE00001684068009084F839502046FFF796FF5F
:101AF00038BD222180F83910ECE770B5040004D01D
:101B000094F83900002510B106E0012070BD84F87A
:101B10003850204600F020F8022084F83900206870
:101B2000C16821F40051C160204600F0E3FC206848
:101B3000016921F4904101612068416921F02A0185
:101B400041612068C16841F40051C160E563012032
:101B500084F83900002070BD10B50068154986B0C2
:101B6000884225D11448816941F4804181618069AE
:101B7000124C00F4804004904FF40070009002205A
:101B800001900320039069462046FEF759FC00218E
:101B90002015CDE90001029169462046FEF750FC70
:101BA000002211462520FFF759F82520FFF74AF8B3
:101BB00006B010BD0038014000100240000801408E
:101BC00090F83930012B01D0122B2ED149B342B3FA
:101BD00090F83830012B28D0012380F8383081620A
:101BE0008285C2850021C16390F83920122A1AD05B
:101BF0005FF0220280F8392080F838100168CA6846
:101C000042F48072CA6001684A6942F001024A6186
:101C10000068C16841F02001C160054803700020E0
:101C20007047012070473222E4E70220704700002D
:101C30000900002070477047FEE701684A69D243F7
:101C400052050DD44A6922F480624A6104218163FD
:101C5000202180F83510002180F8341001207047D1
:101C6000002070472DE9F843044600680D46914670
:101C7000016841F4806101602068016841F480716D
:101C8000016013464FF0011700223946204600F04C
:101C900081F898BB206907F10108B0F5804F10D09A
:101CA0000620216800EAD51646F0F00008614A4691
:101CB000F91D204600F0B3F838B1A06B04282CD0F1
:101CC0001CE0E8B240F001001DE02168E8B20861C4
:101CD0004A464146204600F0A2F80028EDD120688F
:101CE000416981690091016841F4807101604B464E
:101CF00000223946204600F04DF810B10320BDE81F
:101D0000F88346F0F100216808614A4641462046C2
:101D100000F085F80028D0D1F1E70120EFE70000BE
:101D200070B5044600680D461646016841F480719E
:101D30000160134600224FF00111204600F02AF8FE
:101D400098B92069B0F5804F11D00620216800EACB
:101D5000D51040F0F000086132460D49204600F0F1
:101D60005EF838B1A06B042810D0032070BD05F0D8
:101D7000FE0000E0E8B22168086105493246891F8B
:101D8000204600F04CF80028ECD170BD012070BD59
:101D9000080001002DE9F05F1E4690460C460546FE
:101DA000FEF736FC81464FF0000A4FF0200BC4F3DB
:101DB0000747B8F1000F09D024E0701C06D0D6B157
:101DC000FEF726FCA0EB0900B04214D82868012FCA
:101DD00006D0806924EA00000004000C1BD0ECE768
:101DE0004069F7E7701C0DD02EB1FEF711FCA0EB97
:101DF0000900B04206D985F835B085F834A0032033
:101E0000BDE8F09F2868012F07D0806924EA000010
:101E10000004000CE6D00020F2E74069F6E72DE967
:101E2000F04791460D460446FEF7F2FB8246002736
:101E30004FF02008C5F3074629E020684069C043F9
:101E4000400512D42068016841F4007101602068E7
:101E5000416921F4806141610420A06384F83580E8
:101E600084F834700120BDE8F087B9F1FF3F0ED04F
:101E7000B9F1000F05D0FEF7CBFBA0EB0A014945F5
:101E800005D984F8358084F834700320EBE72068A6
:101E9000012E06D0806925EA00000004000CE2D083
:101EA000CBE74069F7E72DE9F04188460446FEF7A5
:101EB000AFFB00250646202721E04169C943C9063A
:101EC0000BD4416921F010014161A56384F835709C
:101ED00084F834500120BDE8F081B8F1000F04D03F
:101EE000FEF796FB811B414509D954F8380F40F0A5
:101EF000200044F80409677025700320EBE7206890
:101F00004169C9434906D8D40020E4E770B50D46BD
:101F10000446FEF77DFB064619E02046FFF78DFEDE
:101F200008B1012070BD681C11D025B1FEF770FB0F
:101F3000801BA8420BD954F8380F40F0200044F819
:101F400004092020607000202070032070BD2068EC
:101F50004069C0430006E0D4002070BD2DE9F04187
:101F60002E4886B0816941F010018161816901F0DC
:101F700010010491816941F020018161816901F0C2
:101F800020010491816941F004018161816901F0BE
:101F900004010491816941F0080181618069012295
:101FA00000F008001E4F5403049021463846FEF707
:101FB00029FBDFF870804FF470460122314640461D
:101FC000FEF720FB0094012403256946384603955B
:101FD0000194FEF735FA062000901348CDE901047C
:101FE00069461248FEF72CFACDE90064694640467E
:101FF0000395FEF725FA002211460720FEF72EFE74
:102000000720FEF71FFE002211460820FEF726FEDD
:102010000820FEF717FE06B0BDE8F0810010024070
:1020200000100140000C0140000021100008014098
:1020300010B5224894B02049016050210024C0E925
:1020400001146421C0E903144461FFF78EFB4FF4CF
:1020500080500E900EA91948FFF7B6FB1748FFF7FE
:10206000A9FC129412A915481394FFF756FB079484
:10207000089409944FF400500A94CDE90B4007A945
:102080000E480D94FFF728FB6020CDE90004029470
:102090000394049405940022694608480694FFF7C7
:1020A00021FC0C2269460548FFF71CFC0348FFF79A
:1020B00005FC14B010BD0000002C0140640000209D
:1020C000FEE70000224810B52249027821480C3171
:1020D000422A36D00ADCA2F130020A2A1CD2DFE8FA
:1020E00002F01C1E20222426282A2C2E4A2A13D035
:1020F00007DC462A10D1FEF72DF9BDE81040FEF7A7
:102100004BB94C2A08D0522A06D0532A04D0712A3F
:1021100002D1642202600A6010BD0022FAE70A229E
:10212000F8E71422F6E71E22F4E72822F2E732222B
:10213000F0E73C22EEE74622ECE75022EAE75A229B
:10214000E8E7FEF7F5F8BDE81040FEF713B9000028
:1021500008000020342C014070470907090E0028B0
:1021600006DA00F00F0000F1E02080F8141D70473F
:1021700000F1E02080F80014704710B5FEF700FD74
:10218000BDE81040FFF7A4BA30B58FB00125280490
:10219000CDE90050002407946846FEF75FFF0F204A
:1021A0000A90CDE90B540D9400210AA80E94FEF775
:1021B00087FDFEF7C9FE4FF47A71B0FBF1F0FFF72F
:1021C00073FA0420FFF763FA00221146501EFEF74F
:1021D00045FD0FB030BD00000D48016841F0010120
:1021E000016041680B4A1140416001680A4A114090
:1021F0000160016821F480210160416821F4FE0141
:1022000041604FF41F0181600449C00308607047BA
:10221000001002400000FFF8FFFFF6FE08ED00E0AE
:10222000F0B50268144B154C154D4FF0804798429D
:1022300005D0B84203D0A04201D0A84203D122F079
:1022400070064A683243984205D0B84203D0A04293
:1022500001D0A84203D122F44074CA68224302602C
:102260008A68C2620A688262984201D10969016380
:1022700001214161F0BD0000002C0140000400403C
:102280000008004010B50123046A8B409C4304629F
:10229000036A8A401343036210BD10B5846842EAA2
:1022A000032224F47F440A432243826010BD8268E3
:1022B00022F070020A4342F007018160704700007B
:1022C00030B5026A22F001020262026A4368846940
:1022D00024F073050C682C4322F002058A682A4317
:1022E0000A4DA8420BD122F00805CA6823F44073B6
:1022F0002A434D6922F004021D438B692B4343603E
:10230000846149684163026230BD0000002C0140D5
:1023100030B5026A22F010020262026A43688469E0
:102320000D6824F4E64444EA05248D6822F0200276
:1023300042EA05120B4DA8420ED1CD6822F0800270
:1023400042EA05124D6923F4406343EA85038D692F
:1023500022F0400243EA8503436084614968816357
:10236000026230BD002C014030B5026A22F4807256
:102370000262036A4268C46923F4007324F073059F
:102380000C682C438D6843EA05230C4DA8420ED1FE
:10239000CD6823F4006343EA05234D6922F44052DB
:1023A00042EA05128D6923F4806342EA0512426015
:1023B000C4614968C163036230BD0000002C014064
:1023C00030B5026A22F480520262046A4268C3692C
:1023D0000D6823F4E64343EA05238D6824F4005492
:1023E00044EA0534064DA84204D14D6922F48042E6
:1023F00042EA85124260C36149680164046230BDEB
:10240000002C014010B5036A046A24F00104046240
:10241000846924F0F00444EA021423F00A020A4317
:102420008461026210BD10B5036A23F010030362D9
:102430008369046A23F4704343EA023224F0A00360
:1024400043EA01118261016210BD000010B590F8ED
:102450003910222903D0322901D0022010BD816811
:10246000B1F5805F11D00169002901681FD049686A
:1024700001F07F03816A4A1C82620B70C18D491E84
:102480000904090CC18518D030E00269816A002A6C
:102490000268526805D0D2B20A80816A491C816202
:1024A000ECE7C2F308020A80816A891CF7E74A68F0
:1024B000816A4B1C83620A70E0E70168CA6822F0F7
:1024C0002002CA6090F83910322911D00168CA6818
:1024D00022F48072CA6001684A6922F001024A61EE
:1024E0005FF0010180F83910FFF7A4FB002010BD58
:1024F0001221F7E72DE9F041044600680169E2681E
:1025000021F44051114301612169A06808436169C8
:1025100008432168CA6841F20C639A430243CA60C7
:1025200020684169A26921F4407111434161284941
:10253000206864254FF03208884218D1FEF734FD38
:1025400000EBC00101EB001061688900B0FBF1F005
:10255000B0FBF5F6FEF728FD00EBC00101EB001023
:1025600061688900B0FBF1F7FEF71EFD17E0FEF78A
:1025700005FD00EBC00101EB001061688900B0FBB4
:10258000F1F0B0FBF5F6FEF7F9FC00EBC00101EB52
:10259000001061688900B0FBF1F7FEF7EFFC00EB7B
:1025A000C00101EB001061688900B0FBF1F0B0FBE5
:1025B000F5F06FF01801484307EB800108EB0110BC
:1025C000B0FBF5F0216866F31F108860BDE8F0816C
:1025D0000038014090F83910122903D0322901D077
:1025E000022070478168B1F5805F016A0BD04A1CF8
:1025F0000262026809785160C18C491E0904090C05
:10260000C1840ED017E009880268C1F30801516047
:1026100001690029016A02D0491C0162ECE7891CAA
:10262000FBE70168CA6822F08002CA600068C168DE
:1026300041F04001C16000207047000010B505481E
:10264000FFF7EEF9BDE81040012203490148FFF70A
:10265000B7BA0000A000002008000020FEE702E05A
:1026600008C8121F08C1002AFAD17047704700201D
:1026700001E001C1121F002AFBD1704708B5FEF727
:1026800087FAFFF781FDFFF769FCFFF7D1FC654D85
:102690006348002428604FF41650C5E901040C205B
:1026A000EC60C5E90440AC612846EC61FFF725FA0F
:1026B000A5F178005C4901605C49C0E901144FF460
:1026C0008041C0E9034144618461C4610462FDF753
:1026D000A5FF574900200C54401C10F0FF00FAD011
:1026E000534F504800217C703C38FFF77FF94D482C
:1026F0000C213C38FFF77AF92868C16841F04001A5
:10270000C1602868C16841F02001C16000254548CA
:102710000A23012229467838FDF7F0FFA0B36D1C8B
:10272000EDB2FF2DF3D300BF414D4FF01C0818351B
:10273000082085F8008068703A480A2602232A4655
:10274000682178380096FEF763F9364885F80080EE
:1027500001232A46682178380096FEF759F9314856
:102760006C7001236A1C682178380096FEF768F8BF
:10277000A0463C46B246A9464FF03B0B6FF00C0713
:102780006078012807D00AE0FFE74FF4005129489C
:10279000FDF734FFC8E7FFF795FC84F80180244A71
:1027A000204889F800B04D4656460123183268216A
:1027B0007838CDF800A0FEF72BF91A4885F801808B
:1027C00006236A1C682178380096FEF739F835F838
:1027D000010F40BA404280B26080698849BA4942DC
:1027E0008EB2A680A9884DBAE580FDF7C2FC3A46B4
:1027F000FDF7A8FCFDF7CAFCE0603046FDF7B9FC28
:102800003A46FDF79FFCFDF7C1FC20612846FDF725
:10281000B0FC3A46FDF796FCFDF7B8FC6061AFE707
:1028200000380140A000002000540040A0860100B4
:102830000800002000100140000000000102030415
:1028400001020304060708096828000800000020A8
:10285000280000005E2600089028000828000020BC
:10286000B80400006E2600080000000000A24A0420
:102870000000000000000000000000000000000058
:102880000000000000000000000000000000000048
:04000005080000ED02
:00000001FF
